:1000000085C04CC29EC0BDC69CC09BC09AC099C052
:1000100098C097C072C695C094C093C092C00403A4
:10002000090442036F006E00650054006500730010
:100030006C0061002C0020004C004C004300680064
:100040007400740070003A002F002F006F006E00E3
:1000500065007400650073006C0061002E00630091
:100060006F006D0030036F006E0065005400650086
:1000700073006C0061002000550053004200200016
:1000800043006F006E00740072006F006C006C0023
:10009000650072001201100100000008C016E4059E
:1000A000000101020001090265000201000032099D
:1000B0000400000001010000092401000109000101
:1000C00001090401000201030000072401000141AD
:1000D0000006240201010006240202020009240392
:1000E00001030102010009240302040101010009C6
:1000F00005010308000A0000052501010109058129
:100100000308000A000005250101030011241FBE99
:10011000CFE5D2E0DEBFCDBF11E0A0E6B0E0ECE07D
:10012000FBE102C005900D92A23AB107D9F711E0A8
:10013000A2EAB1E001C01D92A53EB107E1F765D684
:10014000E3CC5ECF85B7826085BF8BB780648BBF01
:100150008BE48093BB018AE58093BA0108951F93D5
:10016000DC01162F8091BA018E31E9F08091BA013D
:1001700084FF07C08091BB0198E889278093BB0169
:1001800003C08AE58093BA01912FECEBF1E08D91E9
:10019000819391501916DCF38CEB91E0612F67D1BC
:1001A0001C5F1093BA011F9108951F93CF93DF93A3
:1001B0006091CB01635067FDCBC08091C801CCE05A
:1001C000D0E0C81BD109C153DE4F8091C7018031F7
:1001D00018F4CE0141D3BAC08D3209F0A7C06830FF
:1001E00009F0B4C083EC8093AF018AE5809360008E
:1001F0001092A3019881892F807621F0CE01C4D27C
:10020000282F81C02A813C811092B80189818823DE
:1002100081F49F71923049F4313839F48091BA01F8
:100220008E3119F481E08093B8011092B90122E077
:1002300063C0813011F0833089F4222309F05BC060
:10024000313809F058C0813011F08EE101C08AE5E3
:100250008093BA018BE48093BB014DC0853019F4C3
:100260002093CC0148C0863079F58B81813011F024
:10027000823021F4CE0174D2282F22C08330F9F4C9
:100280008A81882341F48EE190E09093CA018093A3
:10029000C90124E015C0813041F482E290E09093DE
:1002A000CA018093C90122E40BC0823041F484E684
:1002B00090E09093CA018093C90120E301C020E03F
:1002C00080E48093A3011FC0883021F421E08EECEC
:1002D00091E014C0893019F42093CE0109C08A300E
:1002E00011F421E009C08B3031F48BE48093BB0121
:1002F0008AE58093BA0120E088EB91E09093CA01EF
:100300008093C90109C02F3F39F4888187FD2E8170
:1003100080E88093A30106C08F81882319F48E8121
:10032000821708F0822F8093610010C08091A30192
:1003300087FF0CC0CE0134D28F3F21F48EE1809331
:10034000600004C0882311F0109261001092CB016C
:100350008091600084FF58C0809161008F3F09F454
:1003600053C0182F893008F018E0811B809361007A
:100370008091AF0198E889278093AF01112391F113
:100380008091A30187FF08C080EB91E0612FFED12F
:10039000182F893098F526C02091C9013091CA01E3
:1003A00086FF0DC0A0EBB1E080E090E0F901E80F1E
:1003B000F91FE491ED9301961817C1F708C0912F2A
:1003C000D901E0EBF1E08D9181939150E1F711506B
:1003D000812F90E01F5F0196820F931F9093CA01B7
:1003E0008093C90180EB91E0612F41D0612F6C5F58
:1003F0006C3041F08FEF8093610004C08FEF8093E9
:1004000061006EE16093600094E186B3857049F409
:100410009150D9F71092CC011092C6018AE58093D1
:10042000BA0110E0992309F411E08091A20181172B
:1004300029F0112309F4B6D11093A201DF91CF91D5
:100440001F910895A82FB92F80E090E041E050EA75
:10045000609530E009C02D9182279795879510F01F
:1004600084279527305EC8F36F5FA8F30895EADF0D
:100470008D939D930895A6E088279927AA9569F002
:100480000197E1F3B099FCCFB09BFECF81E09927B3
:10049000A6B3019611F0A570D9F70895C498CF932B
:1004A000CFB7CF93C395B09BE9F7B09B0BC0B09B80
:1004B00009C0B09B07C0B09B05C0B09B03C0B09BF8
:1004C00001C0D8C00F92DF93C091C801DD27C1538E
:1004D000DE4F012EB09B03C0DF910F90E6CF2F932C
:1004E0000F931F934F932FEF4F6F06B300FB20F92D
:1004F0005F933F9350E03BE065C016B3012650295F
:1005000050FDC89556B3012700FB25F92F7306B39C
:10051000B1F05027102710FB26F906B22230F0F078
:1005200000C016B3012700FB27F90126502906B2A7
:100530002430E8F54F77206816B30000F6CF502737
:100540004F7D206206B2102F000000C006B30026C7
:100550005029102710FB26F906B2E2CF4F7B06B3D5
:10056000206400C0DACF01265029157006B269F167
:100570004E7F2160012F16B328C0002650294D7FE1
:1005800006B22260102F29C0012650294B7F06B2E7
:100590002460012F2DC016B301265029477F286003
:1005A000000006B22EC04F7E06B3206130C0422745
:1005B00006B3499300265029102706B24FEF10FBCF
:1005C00020F9297F16B379F2157059F101265029C7
:1005D00006B2012700FB21F9237F06B371F2002642
:1005E00050293150D0F006B2102710FB22F9277E97
:1005F00016B351F201265029012700FB06B223F958
:100600002F7C49F2000006B3102710FB24F90026C6
:10061000502906B22F7939F270CF10E41ABF0027A3
:100620001CC03B503195C31BD04010E41ABF088159
:10063000033C21F10B3411F12091C6011981110FF6
:100640001213EDCF4A81441F093669F10D3211F0C2
:10065000013E29F74F7009F0042F0093CD013F911F
:100660005F914F911F910F912F91DF910F90CAB71A
:10067000C6FD18CFCF91CFBFCF9118952091CD0156
:10068000222369F31091CB01112379F534307AF1EB
:100690003093CB012093C7011091C8013BE0311B7F
:1006A0003093C80124C00091CB010130F4F40AE575
:1006B0004F7049F43091600034FD1AC0009360001F
:1006C000CFEAD1E019C03091BA0134FD11C00093D6
:1006D000BA01CBEBD1E010C0052710E000C021C06B
:1006E000052710E0C89508BB14C03AE501C032EDFB
:1006F000032EC0E0D0E032E017B31560C09A08B313
:1007000017BB55E020E84FEF20FF052708BB2795D2
:1007100017951C3F28F700004552B0F720FF05272A
:10072000279508BB17951C3FB8F629913A9561F7B4
:100730000A7F1091CC01110F08BBC250D04011F0BC
:100740001093C60110E41ABF016017B31A7F402F3F
:100750004A7F54E05A95F1F708BB17BB48BB7FCFDF
:10076000FC018381813041F484E990E09093CA01D7
:100770008093C90182E1089586EA90E09093CA01CE
:100780008093C90185E608958FEF0895FC011082DA
:1007900011821282138214821582168287E00895D4
:1007A00081E00895DF92EF92FF920F931F93CF9312
:1007B000DF938091AE01882309F046C081E08093E9
:1007C000AE01E199FECFF89400E080E8D82EEE2447
:1007D000FF241D2D100F11BF4EDEEC0189E0C43344
:1007E000D8070CF0102FD6940894E11CF11C88E077
:1007F000E816F10411F0012FECCF115011BF1F5F6B
:10080000E12EFF240894E11CF11C13C034DE9C018E
:100810002453394037FF03C0309521953F4F2C17A3
:100820003D0714F09E0101C011B781B78F5F81BFF2
:10083000E90181B790E0E816F90644F711BF789412
:1008400061B780E090E052D9DF91CF911F910F9175
:10085000FF90EF90DF9008950F931F93CF93DF9356
:10086000EC0188818F708930D1F58981803909F058
:1008700068C08B812091A401882349F49A81921742
:10088000C1F18091A601981709F05BC04EC02223E8
:1008900049F407D28A818093A4018B818093A501BA
:1008A0008AD04FC00091A601002341F400D28A8172
:1008B0008093A6018B818093A7010FC01091A7019F
:1008C000F0D1F5D10093A4011093A5018A81809302
:1008D000A6018B818093A7016ED032D132C08830BF
:1008E00091F49A818091A401981729F48981803824
:1008F00041F5D7D126C08091A601981711F58981BD
:100900008038F9F412C08F3021F489818C3FC9F40A
:100910000BC08B30B1F49A81892F8857823020F038
:100920009B3711F09C3719F4BCD1C1D10AC0973064
:1009300041F48B8180939700882319F481E08093A0
:100940009700DF91CF911F910F91089580E187BBB0
:10095000BB980895C49A0895C49808950F931F935F
:10096000282F84528B3318F060E070E020C0822F73
:100970006CE028D8092F10E0000F111F000F111F85
:100980000E591F4F822F90E084976CE070E026D8BC
:10099000FB01EE56FF4F608170E080E090E07DD576
:1009A000F801208131814281538106D441D2CB01AB
:1009B0001F910F910895AF92BF92CF92DF92EF9265
:1009C000FF920F931F931FBC8091A401C7DF009774
:1009D00009F4ADC09C0140E050E060E472E48FE0B7
:1009E00090E00FD859016A01C601B501F5E096956E
:1009F000879577956795FA95D1F72091A50130E015
:100A000040E050E0C6D79B01AC01CA012FE730E0BF
:100A100040E050E0F6D7C901DA017C018D0185E69E
:100A2000E816F1040105110528F0E4E6EE2EF12C9C
:100A3000012D112DD801C70173E0B695A7959795A3
:100A400087957A95D1F7A801970162E0220F331FAD
:100A5000441F551F6A95D1F7820F931F9093A901E8
:100A60008093A801D601C5018E199F09A00BB10B77
:100A70009C01AD0114E0220F331F441F551F1A952E
:100A8000D1F7B695A79597958795280F391F4A1FD7
:100A90005B1F203080E2380780E0480780E058077D
:100AA00060F486E080BFDA01C901E5E0B695A7955C
:100AB00097958795EA95D1F736C0203080E43807BE
:100AC00080E0480780E0580760F487E080BFDA01E3
:100AD000C90176E0B695A795979587957A95D1F750
:100AE00022C0203080E0380781E0480780E05807C6
:100AF00038F489E080BFBB27A52F942F832F13C024
:100B0000203080E0380784E0480780E0580778F418
:100B10008BE080BFDA01C9012AE0B695A7959795C9
:100B200087952A95D1F78EBD89B7806489BF1F91BB
:100B30000F91FF90EF90DF90CF90BF90AF9008950E
:100B4000AF92BF92CF92DF92EF92FF920F931F93DB
:100B500012BE8091A60102DF009709F499C09C01A2
:100B600040E050E060E472E48FE090E04AD7590141
:100B70006A01C601B501B5E09695879577956795A9
:100B8000BA95D1F72091A70130E040E050E001D7BD
:100B90009B01AC01CA012FE730E040E050E031D7C3
:100BA000C901DA017C018D0185E6E816F104010531
:100BB000110528F0A4E6EA2EF12C012D112DD80103
:100BC000C701F3E0B695A79597958795FA95D1F764
:100BD000A8019701E2E0220F331F441F551FEA9539
:100BE000D1F7820F931F9093AB018093AA01D60196
:100BF000C5018E199F09A00BB10B9C01AD0174E0DA
:100C0000220F331F441F551F7A95D1F7B695A7952C
:100C100097958795280F391F4A1F5B1F203080E466
:100C2000380780E0480780E0580760F483E083BF1E
:100C3000DA01C90126E0B695A795979587952A957B
:100C4000D1F722C0203080E0380781E0480780E0FB
:100C5000580738F484E083BFBB27A52F942F832F38
:100C600013C0203080E0380784E0480780E0580750
:100C700078F485E083BFDA01C9011AE0B695A7953B
:100C8000979587951A95D1F789BD89B7806189BFF6
:100C90001F910F91FF90EF90DF90CF90BF90AF909A
:100CA000089589B78F7B89BF1092A401089589B7F1
:100CB0008F7E89BF1092A6010895F894E199FECF26
:100CC00080E090E00BD78F3F09F081BF2FE088E1F3
:100CD00090E00FB6F894A89581BD0FBE21BD32DA21
:100CE000B89A20E04DE150E104C0A895CA010197EF
:100CF000F1F72150D1F7B898089578941F920F9288
:100D00000FB60F9211242F933F934F935F936F93DE
:100D10007F938F939F93AF93BF93EF93FF931ADECD
:100D20006091AA017091AB018091970090E01FD66D
:100D3000A0E0B0E027E0B695A795979587952A950E
:100D4000D1F70097A105B10521F481E090E0A0E082
:100D5000B0E00197F1F700DE88B78F7E88BF12BE42
:100D6000FF91EF91BF91AF919F918F917F916F9183
:100D70005F914F913F912F910F900FBE0F901F9059
:100D8000189578941F920F920FB60F9211242F93FB
:100D90003F934F935F936F937F938F939F93AF9303
:100DA000BF93EF93FF93D6DD6091A8017091A901E5
:100DB0008091970090E0DBD5A0E0B0E037E0B695F9
:100DC000A795979587953A95D1F70097A105B10515
:100DD00021F481E090E0A0E0B0E00197F1F7BCDD04
:100DE00088B78F7B88BF1FBCFF91EF91BF91AF91F8
:100DF0009F918F917F916F915F914F913F912F9133
:100E00000F900FBE0F901F901895A0DD56DFB39B7B
:100E10000AC088E48093A4018FE78093A50188E24B
:100E200080939700C8DD789497DDA895BED9FDCF53
:100E3000EF92FF920F931F937B018C0120E030E033
:100E400040E05FE4AED288237CF0C801B70120E027
:100E500030E040E05FE45ED1CFD29B01AC01205096
:100E600030404040504805C0C801B701C5D29B0181
:100E7000AC01B901CA011F910F91FF90EF90089545
:100E8000A0E0B0E0E5E4F7E0F2C5DC012B01FA01F7
:100E90009C91923008F439C1EB018881823008F4CA
:100EA00033C1943069F4843009F02FC111969C91BC
:100EB00011978981981709F428C1AAE9B0E025C1E2
:100EC000843009F421C18230A9F4923009F01DC1A7
:100ED0009A01AD0188E0EA010990AE01E9010992A9
:100EE0009E018150C1F7E201898111969C9189236D
:100EF000818308C1923009F407C112962D903C906D
:100F00001397EB018A819B811496AD90BD90CD9093
:100F1000DC901797EC80FD800E811F819101281BCA
:100F2000390BB90137FF04C066277727621B730BA3
:100F3000603271050CF061C0121613066CF53701B2
:100F40004801062E04C096948794779467940A9477
:100F5000D2F721E030E040E050E004C0220F331F20
:100F6000441F551F6A95D2F72150304040405040F1
:100F70002E213F21402351232115310541055105E3
:100F800021F021E030E040E050E079018A01E628DC
:100F9000F728082919293CC0232BD1F1260E371E2A
:100FA00035014601062E04C0969487947794679481
:100FB0000A94D2F721E030E040E050E004C0220F74
:100FC000331F441F551F6A95D2F7215030404040CF
:100FD00050402A213B214C215D212115310541053D
:100FE000510521F021E030E040E050E059016A0174
:100FF000A628B728C828D9280BC0821593052CF03D
:101000001C01AA24BB24650103C0EE24FF24870130
:1010100011969C91D20111968C91981709F445C0B4
:10102000992339F0A80197012A193B094C095D0958
:1010300006C0A60195012E193F09400B510B57FD23
:1010400008C01182338222822483358346835783EA
:101050001DC081E081833382228288279927DC01A9
:10106000821B930BA40BB50B84839583A683B78354
:101070000DC0220F331F441F551F24833583468321
:101080005783828193810197938382832481358161
:1010900046815781DA01C9010197A109B1098F5F22
:1010A0009F4FAF4FBF4328F30BC0918333822282FF
:1010B000EA0CFB1C0C1D1D1DE482F58206831783C0
:1010C00083E08083248135814681578157FF1AC090
:1010D000C901AA2797FDA095BA2F81709070A070C2
:1010E000B0705695479537952795822B932BA42B57
:1010F000B52B84839583A683B783828193810196E0
:1011000093838283DF0101C0D201CD01CDB7DEB769
:10111000E2E1C9C4A0E2B0E0EFE8F8E0B4C469835A
:101120007A838B839C832D833E834F835887E9E0AA
:10113000EE2EF12CEC0EFD1ECE010196B70146D32A
:101140008E010F5E1F4FCE010596B8013FD38A89ED
:1011500091E089278A8BC701B801AE01475E5F4FD6
:101160008FDE5FD2A096E6E0AAC4A0E2B0E0EAEB90
:10117000F8E089C469837A838B839C832D833E83C3
:101180004F835887F9E0EF2EF12CEC0EFD1ECE01B7
:101190000196B7011BD38E010F5E1F4FCE0105963E
:1011A000B80114D3C701B801AE01475E5F4F68DED6
:1011B00038D2A096E6E083C4A0E2B0E0E1EEF8E029
:1011C00056C469837A838B839C832D833E834F83AC
:1011D0005887CE010196BE01675F7F4FF7D2CE01DF
:1011E0000596BE016F5E7F4FF1D29985923088F0EF
:1011F00089898230C8F0943019F4823051F404C0E7
:10120000843029F4923081F48AE990E0C6C09230AB
:1012100049F420E09A858A89981321E02A87CE0133
:101220000996BBC0823049F420E09A858A899813D8
:1012300021E02A8BCE014196B0C02D843E844F849C
:1012400058886D887E888F88988CEE24FF248701CB
:10125000AA24BB24650140E050E060E070E0E0E0DB
:10126000F0E0C10181709070892BE9F0E60CF71C69
:10127000081D191D9A01AB012A0D3B1D4C1D5D1D5A
:1012800080E090E0A0E0B0E0E614F704080519055E
:1012900020F481E090E0A0E0B0E0BA01A901480F9D
:1012A000591F6A1F7B1FAA0CBB1CCC1CDD1C97FEA0
:1012B00008C081E090E0A0E0B0E0A82AB92ACA2ADC
:1012C000DB2A3196E032F10549F0660C771C881C68
:1012D000991C5694479437942794C3CFFA85EA898A
:1012E0002B893C898B859C85280F391F2E5F3F4FAA
:1012F00017C0CA0181709070892B61F0169507950F
:10130000F794E79480E090E0A0E0B0E8E82AF92ABA
:101310000A2B1B2B76956795579547952F5F3F4F67
:1013200077FDE7CF0CC0440F551F661F771F17FDD1
:101330004160EE0CFF1C001F111F21503040403057
:1013400090E0590790E0690790E4790760F32B8FEC
:101350003C8FDB01CA018F779070A070B070803431
:101360009105A105B10561F447FD0AC0E114F1043E
:101370000105110529F0405C5F4F6F4F7F4F4078AA
:101380001A8EFE1711F081E08A8F4D8F5E8F6F8F5E
:1013900078A383E0898FCE01499643D1A096E2E1FC
:1013A00082C3A8E1B0E0E6EDF9E06DC369837A831A
:1013B0008B839C832D833E834F83588789E0E82E5F
:1013C000F12CEC0EFD1ECE010196B701FFD18E016E
:1013D0000F5E1F4FCE010596B801F8D18985823086
:1013E00038F08989823020F0C701B80167D201C086
:1013F0008FEF6896E6E063C3ACE0B0E0E1E0FAE0CE
:1014000046C369837A838B839C83CE010196BE0198
:101410006B5F7F4FDBD18D81823061F1823050F183
:10142000843021F48E81882351F12EC02F8138859C
:1014300037FD20C06E812F3131051CF06623F9F095
:1014400023C08EE190E0821B930B29853A854B8562
:101450005C8504C056954795379527958A95D2F7B0
:101460006623B1F050954095309521953F4F4F4FF1
:101470005F4F0EC020E030E040E050E009C02FEFA9
:101480003FEF4FEF5FE704C020E030E040E050E87E
:10149000B901CA012C96E2E016C3A8E0B0E0E2E58B
:1014A000FAE0EDC27B018C016115710581059105A2
:1014B00019F482E089835FC083E089838EE1C82EBE
:1014C000D12CDC82CB82ED82FE820F831887C8018B
:1014D000B70158D0FC013197F7FF3BC022273327D3
:1014E0002E1B3F0B57016801022E04C0D694C794EF
:1014F000B794A7940A94D2F740E050E060E070E01F
:1015000081E090E0A0E0B0E004C0880F991FAA1F1E
:10151000BB1F2A95D2F70197A109B1098E219F21FE
:10152000A023B1230097A105B10521F041E050E0CF
:1015300060E070E04A295B296C297D294D835E8338
:101540006F8378878EE190E08E1B9F0B9C838B834B
:1015500012C0309781F00E2E04C0EE0CFF1C001F4D
:10156000111F0A94D2F7ED82FE820F831887CE1ADC
:10157000DF0ADC82CB821A82CE01019652D02896F5
:10158000EAE099C2EF92FF920F931F937B018C01C7
:1015900080E0E81680E0F80681E0080780E01807A0
:1015A00088F48FEFE816F1040105110531F028F0F9
:1015B00088E090E0A0E0B0E017C080E090E0A0E01C
:1015C000B0E012C080E0E81680E0F80680E008078E
:1015D00081E0180728F088E190E0A0E0B0E004C0C6
:1015E00080E190E0A0E0B0E020E230E040E050E0B8
:1015F000281B390B4A0B5B0B04C016950795F79413
:10160000E7948A95D2F7F701EE55FF4F8081281BAA
:10161000310941095109C9011F910F91FF90EF90C4
:101620000895DF92EF92FF920F931F93FC01E480E5
:10163000F58006811781D1808081823048F480E076
:1016400090E0A0E1B0E0E82AF92A0A2B1B2BA5C004
:10165000843009F49FC0823021F4EE24FF248701F6
:1016600005C0E114F1040105110519F4E0E0F0E012
:1016700096C0628173819FEF623879070CF05BC07E
:1016800022E83FEF261B370B2A3131052CF020E0F2
:1016900030E040E050E02AC0B801A701022E04C0AB
:1016A00076956795579547950A94D2F781E090E033
:1016B000A0E0B0E004C0880F991FAA1FBB1F2A95A5
:1016C000D2F70197A109B1098E219F21A023B1234F
:1016D0000097A105B10521F081E090E0A0E0B0E025
:1016E0009A01AB01282B392B4A2B5B2BDA01C9015C
:1016F0008F779070A070B07080349105A105B1050E
:1017000039F427FF09C0205C3F4F4F4F5F4F04C0A3
:10171000215C3F4F4F4F5F4FE0E0F0E02030A0E012
:101720003A07A0E04A07A0E45A0710F0E1E0F0E031
:1017300079018A0127C06038710564F5FB01E15821
:10174000FF4FD801C7018F779070A070B0708034C0
:101750009105A105B10539F4E7FE0DC080E490E0E4
:10176000A0E0B0E004C08FE390E0A0E0B0E0E80EBD
:10177000F91E0A1F1B1F17FF05C016950795F79442
:10178000E794319687E016950795F794E7948A9544
:10179000D1F705C0EE24FF248701EFEFF0E06E2FB4
:1017A000679566276795902F9F77D794DD24D79408
:1017B0008E2F8695492F462B582F5D29B701CA01D8
:1017C0001F910F91FF90EF90DF900895FC01DB01D6
:1017D000408151812281622F6F7770E0221F222782
:1017E000221F9381892F880F822B282F30E0991F89
:1017F0009927991F11969C93119721153105A9F5E9
:10180000411551056105710511F482E037C082E888
:101810009FEF13969C938E9312979A01AB0167E00A
:10182000220F331F441F551F6A95D1F783E08C9315
:101830000DC0220F331F441F551F12968D919C918E
:101840001397019713969C938E931297203080E004
:10185000380780E0480780E4580758F314962D9322
:101860003D934D935C93179708952F3F310579F47D
:10187000411551056105710519F484E08C930895B3
:1018800064FF03C081E08C9312C01C9210C02F57DC
:10189000304013963C932E93129783E08C9387E00D
:1018A000440F551F661F771F8A95D1F770641496F1
:1018B0004D935D936D937C93179708951F93DC016F
:1018C000FB019C91923008F447C08081823008F47B
:1018D00043C0943051F411961C91843099F5818164
:1018E000682F70E0611B71093FC0843021F0923095
:1018F00031F48230B9F18181882389F12DC01196AC
:101900001C9111978230F1F081811817D9F4129649
:101910002D913C911397828193818217930794F0C4
:1019200028173907BCF014968D919D910D90BC91AC
:10193000A02D2481358146815781281739074A0710
:101940005B0718F4112341F00AC082179307A4071C
:10195000B50740F4112319F061E070E005C06FEFA6
:101960007FEF02C060E070E0CB011F910895552722
:10197000002480FF02C0060E571F660F771F6115F7
:10198000710521F096958795009799F7952F802DF1
:101990000895FF27EE27BB27AA2760FF04C0A20FE8
:1019A000B31FE41FF51F220F331F441F551F9695C9
:1019B00087957795679589F70097760771F7CF0137
:1019C000BD010895991B79E004C0991F961708F08E
:1019D000961B881F7A95C9F78095089597FB092E65
:1019E00007260AD077FD04D02ED006D000201AF4A6
:1019F000709561957F4F0895F6F7909581959F4F6B
:101A00000895A1E21A2EAA1BBB1BFD010DC0AA1F3F
:101A1000BB1FEE1FFF1FA217B307E407F50720F057
:101A2000A21BB30BE40BF50B661F771F881F991FD2
:101A30001A9469F760957095809590959B01AC011B
:101A4000BD01CF010895AA1BBB1B51E107C0AA1F0E
:101A5000BB1FA617B70710F0A61BB70B881F991F4F
:101A60005A95A9F780959095BC01CD0108952F92C4
:101A70003F924F925F926F927F928F929F92AF921E
:101A8000BF92CF92DF92EF92FF920F931F93CF936B
:101A9000DF93CDB7DEB7CA1BDB0B0FB6F894DEBF02
:101AA0000FBECDBF09942A88398848885F846E8428
:101AB0007D848C849B84AA84B984C884DF80EE8072
:101AC000FD800C811B81AA81B981CE0FD11D0FB67B
:101AD000F894DEBF0FBECDBFED010895E199FECFB2
:101AE0009FBB8EBBE09A99278DB30895262FE1996D
:101AF000FECF1CBA9FBB8EBB2DBB0FB6F894E29AEB
:0C1B0000E19A0FBE01960895F894FFCF03
:101B0C005AFFCDCC83429A998B42CDCC93426666D8
:101B1C009C42CDCCA5429A99AF42CDCCB9420000A3
:101B2C00C5429A99D0420000DD420000EA42000012
:101B3C00F84201020408107F400000000000000081
:101B4C000000000102020303030304040404040460
:101B5C00040405050505050505050505050505052B
:101B6C00050506060606060606060606060606060B
:101B7C0006060606060606060606060606060606F9
:101B8C0006060707070707070707070707070707DB
:101B9C0007070707070707070707070707070707C9
:101BAC0007070707070707070707070707070707B9
:101BBC0007070707070707070707070707070707A9
:101BCC00070708080808080808080808080808088B
:101BDC000808080808080808080808080808080879
:101BEC000808080808080808080808080808080869
:101BFC000808080808080808080808080808080859
:101C0C000808080808080808080808080808080848
:101C1C000808080808080808080808080808080838
:101C2C000808080808080808080808080808080828
:101C3C000808080808080808080808080808080818
:021C4C00080886
:00000001FF
